:100000000C9433090C944F090C944F090C944F092C
:100010000C944F090C944F090C944F090C944F0900
:100020000C944F090C944F090C94960F0C94F20FFA
:100030000C944F090C944F090C944F090C944F09E0
:100040000C944F090C944F090C944F090C944F09D0
:100050000C944F090C944F090C944F090C944F09C0
:100060000C944F090C944F090C944F090C944F09B0
:100070000C944F090C944F090C944F090C944F09A0
:100080000C944F090C944F090C944F090C944F0990
:100090000C944F090C944F090C944F090C944F0980
:1000A0000C944F090C944F090C944F093F0E470EC6
:1000B0004D0E530E590E5F0E650E6B0EDE0EDE0EEC
:1000C000DE0EDE0EDE0EDE0E00000000DE0EDE0EA8
:1000D000DE0EDE0EDE0EDE0EDE0EDE0EDE0EDE0EC0
:1000E000DE0EDE0E00000000DE0EDE0EDE0EDE0E88
:1000F000DE0EDE0EDE0EDE0EDE0EDE0EDE0EDE0EA0
:1001000000000000DE0EDE0EDE0EDE0EDE0EDE0E67
:10011000DE0EDE0EDE0EDE0EDE0EDE0E0000000057
:10012000DE0EDE0EDE0EDE0EDE0EDE0EDE0EDE0E6F
:10013000DE0E000000000000000000000000DE0EE7
:10014000DE0EDE0EDE0EDE0EDE0EDE0E0000000027
:10015000010FDE0E00000000DE0E080F00000000A0
:10016000DE0EDE0E000000000000000000000000B7
:10017000000000000000000000000000000000007F
:10018000E60EDE0E030F030F030F030F0000000047
:10019000DE0EDE0EDE0E030FDE0E0000E60E030F97
:1001A000030F030F030F030F00000000030F030FE3
:1001B000030F030F030F0000E60E00000000030F03
:1001C000DE0EDE0E00000000030F030F030F030F0F
:1001D000030FE60EE60EE60E000000000000000031
:1001E000000000000000000000000000000000000F
:1001F000E60EE60E00000000000000000000000017
:10020000E60E000000000000E60EE60E0000000012
:1002100000000000000000000000000000000000DE
:1002200000000000000000000000000000000000CE
:1002300000000000000000000000000000000000BE
:1002400000000000000000000000000000000000AE
:10074000000000000000000000000000DE0EDE0ED1
:10075000DE0EDE0EDE0EDE0E00000000DE0EDE0E11
:10076000DE0EDE0EDE0EDE0EDE0EDE0EDE0EDE0E29
:10077000DE0EDE0E00000000DE0EDE0EDE0EDE0EF1
:10078000DE0EDE0EDE0EDE0EDE0EDE0EDE0EDE0E09
:1007900000000000DE0EDE0EDE0EDE0EDE0EDE0ED1
:1007A000DE0EDE0EDE0EDE0EDE0EDE0E00000000C1
:1007B000DE0EDE0EDE0EDE0EDE0EDE0EDE0EDE0ED9
:1007C000DE0E000000000000000000000000DE0E51
:1007D000DE0EDE0EDE0EDE0EDE0EDE0E0000000091
:1007E000FF0EDE0E00000000DE0E080F000000000D
:1007F000DE0EDE0E00000000000000000000000021
:1008000000000000000000000000000000000000E8
:10081000E60EDE0E030F030F030F030F00000000B0
:10082000DE0EDE0EDE0E030FDE0E0000E60E030F00
:10083000030F030F030F030F00000000030F030F4C
:10084000030F030F030F0000E60E00000000030F6C
:10085000DE0EDE0E00000000030F030F030F030F78
:10086000030FE60EE60EE60E00000000000000009A
:100870000000000000000000000000000000000078
:10088000E60EE60E00000000000000000000000080
:10089000E60E0D0F00000000E60EE60E0000000060
:1008A0000000000000000000000000000000000048
:1008B0000000000000000000000000000000000038
:1008C0000000000000000000000000000000000028
:1008D0000000000000000000000000000000000018
:100DD000000000000000000000000000351E1F2081
:100DE0002122000023242526272A2B141A08151750
:100DF00000001C180C12133129041607090A000000
:100E00000B0D0E0F3334E11D1B06190500001110E8
:100E1000363738E1E0E249000000000000005051A0
:100E2000524F2B290000012C00002B060000282A1D
:100E3000000000000000000000000000000000357D
:100E4000352E2D330000342D2E313100001E1F2091
:100E500021220000232425262700000000342F3003
:100E600000002F303637380000000000000000007E
:100E70000000000000000000000000000000000171
:100E80000000000000000000000000000000000062
:100E90000000000000000000000000000000000052
:100EA0000000000000000000000000000000000042
:100EB0000000000000000000000000000000000032
:1011200000000000000100004C121200020000B993
:10113000113B00210000CB1109002200000D123FDD
:1011400000210100E4110900220100F4111900033B
:101150000000B51104010309049B111802030904DE
:1011600063113636034500720067006F0044006F5C
:1011700000780020006500720067006F006E006F4D
:10118000006D006900630020006B0065007900625B
:10119000006F006100720064000000180375006EAB
:1011A00000730070006500630069006600690065F7
:1011B00000640000000403090409023B000201006E
:1011C000C0320904000001030101000921110100DE
:1011D00001223F000705810308000A0904010001FC
:1011E00003000000092111010001221900070582F6
:1011F0000308000A050C0901A10185031501269CBD
:101200000219012A9C02751095018100C00501098F
:1012100006A10175019508050719E029E7150025C4
:10122000018102950175088103950575010508196D
:10123000012905910295017503910395067508151D
:101240000025680507190029688100C01201000205
:1012500000000020501D286000010102000101C1B2
:101260000601C106000011241FBECFEFDAE0DEBF89
:10127000CDBF11E0A0E0B1E0EEE3F3E202C00590E3
:101280000D92AA31B107D9F722E0AAE1B1E001C07D
:101290001D92AB3CB207E1F7DAD00C949D110C948F
:1012A000000020911A01281778F030E0A901481BAE
:1012B0005109CA01FA01EE0FFF1F8E0F9F1FFC019B
:1012C000EB57FD4F8081089580E0089520911A0129
:1012D000281778F030E0A901481B5109CA01FA012A
:1012E000EE0FFF1F8E0F9F1FFC01EB57FD4F8281FA
:1012F000089580E0089521E030E0F901E050FF4FCB
:101300009081911114C091E09083E0911A01EF5FF8
:10131000E0931A01F0E0AF01440F551FE40FF51FF1
:10132000EB57FD4F808321836283822F08952F5FC7
:101330003F4F2431310509F780E0089540911A01AB
:1013400091E0491708F43FC0292F30E0F901EE0F72
:10135000FF1F2E0F3F1FF901EB57FD4F218128136F
:1013600030C09417D0F4292F30E0D9011196BD0177
:10137000660F771FA60FB71FAB57BD4F5C91F901E2
:10138000EE0FFF1F2E0F3F1FF901EB57FD4F50834C
:1013900011962C9121839F5FE4CFE42FF0E09F0111
:1013A000220F331FE20FF31FEB57FD4F1082118204
:1013B000E82FF0E0E050FF4F1082415040931A01B7
:1013C00008959F5FBECF08952091C3028091C60209
:1013D00090918402E0918302222381F02EE0E29F2B
:1013E000F001112424E5929FE00DF11D1124E80F76
:1013F000F11DEE0FFF1FE45BF84F0FC02EE0E29FE0
:10140000F001112424E5929FE00DF11D1124E80F55
:10141000F11DEE0FFF1FE454FF4F8591949100974B
:1014200011F0FC01099580911A01282F30E0F90193
:10143000EE0FFF1F2E0F3F1FF901EB57FD4F92815B
:10144000923021F490912E02911178CF0895E1D03D
:101450008CE090E0909389008093880090938B00BB
:1014600080938A0090938D0080938C00259A269A11
:10147000279A0AD520D58823E9F38FE790E0909347
:101480008900809388002FE732E440E1215030400A
:101490004040E1F700C0000090938B0080938A00E9
:1014A0005FE7E2E4F0E15150E040F040E1F700C0D6
:1014B000000090938D0080938C002FE732E440E190
:1014C000215030404040E1F700C0000025982698A8
:1014D0002798909389008093880090938B00809345
:1014E0008A0090938D0080938C001EE080911401FF
:1014F000909115012091160130911701309315013B
:101500002093140190931701809316018DD01092AF
:101510002D0280912D02863008F059C01092C4022D
:10152000D091C402C0912D02DE3008F04CC0E09191
:101530001601F09117011C9FC00111248D0F911D00
:10154000E80FF91F20812093C302E0911401F0916C
:101550001501E80FF91F30813093C102231769F19B
:10156000FC01E15DFD4F7F01222349F080E099DE1F
:1015700080938402F70180831092C20209C0208107
:1015800020938402FC01E55EFE4F80818093C202BD
:10159000C0938302D093C6021092C50215DF8091DA
:1015A000C402E0912D021E9FF0011124E80FF11DED
:1015B000E55EFE4F8091C20280838091C4028F5FFE
:1015C0008093C402ADCFCF5FC0932D02A2CF76D45B
:1015D00090D68FE19EE40197F1F700C00000809162
:1015E000230280FF02C0259A01C025988091230222
:1015F00081FF02C0269A01C026988091230282FFB3
:1016000002C0279A01C0279880912302809123026B
:101610006DCF1AD0811104C014D2811103C0089576
:1016200081E0089582E00895CF93DF93EC01D5D057
:10163000811106C0CE0130D2882319F082E001C0AA
:1016400081E0DF91CF910895E1E6F0E080E88083CA
:10165000108256985E9824982C982598269827985A
:1016600089EA8093800089E0809381009BD23F9833
:1016700085E08A95F1F70000579885E08A95F1F7A3
:101680000000549885E08A95F1F70000559885E0B0
:101690008A95F1F700006E9885E08A95F1F70000D1
:1016A000479A85E08A95F1F700005F9A85E08A9570
:1016B000F1F700005C9A85E08A95F1F700005D9AE9
:1016C00085E08A95F1F70000769A85E08A95F1F732
:1016D0000000879885E08A95F1F70000869885E0FC
:1016E0008A95F1F70000859885E08A95F1F700006A
:1016F000849885E08A95F1F70000819885E08A95C5
:10170000F1F70000809885E08A95F1F700002098B5
:1017100085E08A95F1F70000219885E08A95F1F738
:101720000000229885E08A95F1F70000239885E073
:101730008A95F1F70000529885E08A95F1F700004C
:10174000539885E08A95F1F700003E9885E08A95E8
:10175000F1F700008F9885E08A95F1F700008E98E8
:1017600085E08A95F1F700008D9885E08A95F1F77C
:1017700000008C9885E08A95F1F70000899885E053
:101780008A95F1F70000889885E08A95F1F70000C6
:10179000289A85E08A95F1F70000299A85E08A95D4
:1017A000F1F700002A9A85E08A95F1F700002B9A5C
:1017B00085E08A95F1F700005A9A85E08A95F1F75D
:1017C00000005B9A85E08A95F1F70000469A85E073
:1017D0008A95F1F7000080E00895FC01879A85E082
:1017E0008A95F1F7000083B1817091E089278783A2
:1017F00083B1869581708927808783B182FB882792
:1018000080F98927818783B183FB882780F989271D
:10181000828789B182FB882780F98927838789B1EC
:1018200083FB882780F98927848786B186FB8827F0
:1018300080F989278587879885E08A95F1F70000E8
:10184000869A85E08A95F1F7000083B18170892737
:10185000858B83B1869581708927868B83B182FBC6
:10186000882780F98927878B83B183FB882780F9B4
:101870008927808F89B182FB882780F98927818F0A
:1018800089B183FB882780F98927828F86B186FBFF
:10189000882780F98927838F869885E08A95F1F7D4
:1018A0000000859A85E08A95F1F7000083B1817088
:1018B000892783A383B186958170892784A383B107
:1018C00082FB882780F9892785A383B183FB88273A
:1018D00080F9892786A389B182FB882780F9892727
:1018E00087A389B183FB882780F9892780A786B1E0
:1018F00086FB882780F9892781A7859885E08A95C6
:10190000F1F70000849A85E08A95F1F7000083B131
:101910008170892781AB83B186958170892782ABDD
:1019200083B182FB882780F9892783AB83B183FB4E
:10193000882780F9892784AB89B182FB882780F9C1
:10194000892785AB89B183FB882780F9892786ABF6
:1019500086B186FB882780F9892787AB849885E044
:101960008A95F1F70000819A85E08A95F1F70000E9
:1019700083B18170892787AF83B1DF01A05CBF4F3E
:101980008695817089278C9383B1119682FB882775
:1019900080F989278C9383B1119683FB882780F97E
:1019A00089278C9389B1119682FB882780F9892732
:1019B0008C9389B1119683FB882780F989278C93B2
:1019C00086B1119686FB882780F989278C938198A8
:1019D00085E08A95F1F70000809A85E08A95F1F715
:1019E000000083B1EA5BFF4F81708927878383B151
:1019F000869581708927808783B182FB882780F94B
:101A00008927818783B183FB882780F9892782878B
:101A100089B182FB882780F98927838789B183FB75
:101A2000882780F98927848786B186FB882780F9F3
:101A300098279587809885E08A95F1F7000080E0E7
:101A40000895CF93B8D080E4D5D0C82F811120C09D
:101A500080E0D0D08FEFCED080ECCCD0C3D0ABD054
:101A600080E4C8D0C82F811113C08CE0C3D08FEFA1
:101A7000C1D080ECBFD0B6D09ED080E4BBD0C82F00
:101A8000811106C084E1B6D08FEFB4D08FEFB2D011
:101A9000A9D08C2FCF9108959F92AF92BF92CF92F1
:101AA000DF92EF92FF920F931F93CF93DF9300D0BB
:101AB000CDB7DEB7F82E9A83C4DF982E9A8188239B
:101AC00089F02F2D392F86E0A901495F5F4FF90179
:101AD0001192E417F507E1F78150225F3F4F811122
:101AE000F3CF51C00F2D192FA12CB12C85E0E82E7A
:101AF000F12CCC24C394D12C5ED080E47BD083E144
:101B000079D0C7018A199B09960102C0220F331FA1
:101B10008A95E2F7C90180956DD064D04CD080E4FD
:101B200069D082E167D047D081E464D0CE010196CC
:101B30007FD058D0898190E0F80140E050E09C01CE
:101B4000042E02C0359527950A94E2F721703327B9
:101B500061E02627217021934F5F5F4F4730510589
:101B600071F78FEFA81AB80A025F1F4F26E0A2167E
:101B7000B10409F0C1CF1FD080E43CD083E13AD05A
:101B80008FEF38D02FD0892D0F900F90DF91CF910C
:101B90001F910F91FF90EF90DF90CF90BF90AF908B
:101BA0009F900895E9EBF0E080818C7F808388E44A
:101BB0008093B800089584EA8093BC008091BC00B3
:101BC00087FFFCCF8091B900887F883049F08091F1
:101BD000B900887F803121F08091B900887F089515
:101BE00080E0089584E98093BC008091BC0084FD6E
:101BF000FCCF08958093BB0084E88093BC00809163
:101C0000BC0087FFFCCF8091B900887F883171F0DC
:101C10008091B900887F883249F08091B900887F2F
:101C2000803421F08091B900887F089580E0089584
:101C300024EC2093BC002091BC0027FFFCCF209116
:101C4000BB00FC0120838091B900887F803521F0A2
:101C50008091B900887F089580E00895962F6623CB
:101C600009F45AC0462F50E0FA01E05EF109E8306D
:101C7000F105B8F5EA5AFF4F90912B0258C388231B
:101C800011F0916001C09E7F90932B0208958823EC
:101C900011F09260F9CF9D7FF7CF882311F0946007
:101CA000F3CF9B7FF1CF882311F09860EDCF977F22
:101CB000EBCF882311F09061E7CF9F7EE5CF88239B
:101CC00011F09062E1CF9F7DDFCF882311F0906407
:101CD000DBCF9F7BD9CF882311F09068D5CF9F773A
:101CE000D3CFE5E2F2E020E030E04081882339F014
:101CF00041110CC0F901EB5DFD4F9083089549132C
:101D000005C0F901EB5DFD4F108208952F5F3F4F35
:101D100031962630310549F70895CF93DF93C82FC8
:101D2000D0E0C95EDD4F8881882311F007DB18827F
:101D3000DF91CF910895CF93DF93D82F8091C60282
:101D400090918402E09183022EE0E29FF001112441
:101D500024E5929FE00DF11D1124E80FF11DE452DE
:101D6000F24FC4918D2FD9DF80E0B0DA81508230FC
:101D700018F480E096DAE2DA60E08C2FBCDAED2F1E
:101D8000F0E0E95EFD4F8083DF91CF91089580916F
:101D9000C60290918402E09183022EE0E29FF0015E
:101DA000112424E5929FE00DF11D1124E80FF11D8F
:101DB000E452F24F64918091C30250CF8091C202ED
:101DC000811103C081E080932E02E1CF81E08093F6
:101DD000C2028091C5028F5F8093C50262DA809350
:101DE00084029091C602E09183022EE0E29FF0010E
:101DF0001124E90FF11DE15DFD4F8083E5CA81E00B
:101E00009ACF81E08ACF65EE8091C30227DFD6CFDB
:101E100064EE8091C30222DFD1CFF89481E08093F9
:101E2000E00080E28093D800E9ECF0E010828FE1DE
:101E30009EE40197F1F700C000001DBA10926800FF
:101E40001CBC10BE1FBA10927A0010926E00109245
:101E50006F0010927100109272001082ECEBF0E0B3
:101E6000108214B817B81AB81DB810BA108215B875
:101E700018B81BB81EB811BA0C94003F0895809191
:101E8000E80080FFFCCF089581E08093D70080EACE
:101E90008093D80082E189BD09B400FEFDCF80E9BE
:101EA0008093D8001092E00010922C028CE0809376
:101EB000E2007894089580912C02089580912C027C
:101EC000811102C08FEF08958FB7F89491E090933D
:101ED000E9009091E4009E5C21E03091E80035FD3E
:101EE0000EC08FBF80912C02882361F38091E400A3
:101EF000891741F38FB7F8942093E900EECF9091C2
:101F00002B029093F1001092F100E5E2F2E096E0EE
:101F10009E0F21912093F1009E13FBCF9AE39093A3
:101F2000E800109224028FBF80E008951F920F9264
:101F30000FB60F9211248F939F93EF93FF9380918D
:101F4000E1001092E10083FF0FC01092E90091E0E0
:101F50009093EB001092EC0092E29093ED0098E0E9
:101F60009093F00010922C0282FF33C080912C02DB
:101F7000882379F180911801882359F180912202F8
:101F80008F5F80932202837021F581E08093E900C6
:101F90008091E80085FF1DC0809124028F5F8093AF
:101FA000240290911801891314C010922402809188
:101FB0002B028093F1001092F100E5E2F2E086E05E
:101FC0008E0F91919093F1008E13FBCF8AE3809353
:101FD000E800FF91EF919F918F910F900FBE0F90AE
:101FE0001F9018951F920F920FB60F921124EF9227
:101FF000FF920F931F932F933F934F935F936F9392
:102000007F938F939F93AF93BF93EF93FF93CF9360
:10201000DF931F92CDB7DEB71092E9008091E80000
:1020200083FF1FC19091F1008091F1003091F10088
:102030002091F100E32EF12CF22A0091F100209181
:10204000F10010E0122B2091F1006091F10032EFCD
:102050003093E800863009F046C039E084E291E12F
:10206000FC01459154914E155F0539F4FC013296FF
:10207000459154914017510721F00796315081F74F
:10208000F0C0FC01349645915491FC013696849140
:1020900030E0362B2F3F310519F010F02FEF30E0F4
:1020A000281708F4822F3EEF9091E800292F257021
:1020B000D9F392FDD9C0982F813208F090E2FA014D
:1020C000292F222331F064916093F1002150319641
:1020D000F8CF490F511D891B3093E8008111E4CFDF
:1020E000903211F3C1C0853049F48EEF8093E8003F
:1020F000C6DE8E2D80688093E300B6C0893039F546
:1021000091116AC0E0922C028EEF8093E80041E0CA
:102110008EE592E14093E9009C012F5F3F4FFC0167
:1021200054915093EB00552359F0F90124912093D9
:10213000EC009C012D5F3F4F319684918093ED0020
:102140004F5F453011F0C901E5CF8EE140C08830C6
:1021500039F4903809F040C092DE80912C025FC0C3
:10216000811115C099838BDE9981923851F40093C7
:10217000E9008091EB0085FB882780F91092E90047
:1021800001C080E08093F1001092F10066C0282F1A
:102190002D7F213009F59230F9F4EF2809F061C064
:1021A0000F779FEF900F943008F05BC09EEF9093F5
:1021B000E8000093E900833009F453C089E180937B
:1021C000EB0081E090E001C0880F0A95EAF7809368
:1021D000EA001092EA0048C0012B09F042C0913A8F
:1021E00009F5813089F44BDE80912B028093F10058
:1021F0001092F100E5E2F2E086E08E0F919190936B
:10220000F1008E13FBCF29C0823021F438DE80919B
:10221000180105C0833029F532DE809119018093C1
:10222000F1001BC09132E9F4893061F48091E8003B
:1022300082FFFCCF8091F100809323028BEF80938B
:10224000E8000BC08A3029F4F092180110922402A1
:1022500004C08B3031F4E09219018EEF8093E800D6
:1022600003C081E28093EB000F90DF91CF91FF914B
:10227000EF91BF91AF919F918F917F916F915F91FE
:102280004F913F912F911F910F91FF90EF900F90E1
:102290000FBE0F901F90189590912C02911102C0C3
:1022A0008FEF08959FB7F89422E02093E9002091E2
:1022B000E4002E5C32E04091E80045FD0EC09FBF77
:1022C00090912C02992361F39091E400921741F3CD
:1022D0009FB7F8943093E900EECF8093F1006093BC
:1022E000F1007093F1008AE38093E8009FBF80E0E3
:1022F00008956091C7027091C8028091C9029091BF
:10230000CA026817790781F083E0C6DF082E000C47
:10231000990B009759F42091C7023091C80230936D
:10232000CA022093C902089580E090E00895EE0F5C
:0E233000FF1F0590F491E02D0994F894FFCF63
:10233E00010000000000000000000000000000008E
:0A234E00000000006F01C3017D01D3
:00000001FF
